:0C0000000C9456000C9400000C940000BE
:10000C000C9400000C9400000C9400000C94000064
:10001C000C9400000C9400000C9485000C940000CF
:10002C000C9400000C9400000C9482000C940000C2
:10003C000C9400000C9400000C9400000C94000034
:10004C000C9400000C9400000000CE020000000094
:10005C003F065B4F666D7D077F6F0E16061A0A1200
:10006C00021C0C14041808105E785F303879003DBF
:10007C00776D79003977546D397738796D797800E7
:10008C00007950505C500800040054000A006002D3
:10009C005C000E006A0266001E007902740000000B
:1000AC00F894EE27ECBBF1E0F5BFE5BF8DE0A2E0E4
:1000BC00BB27ED938A95E9F780E098E0A0E6ED93F5
:1000CC000197E9F7E2E9F0E085919591009761F0ED
:1000DC00A591B59105901590BF01F00105900D9279
:1000EC000197E1F7FB01F0CFEFE5EDBFE8E0EEBFE4
:1000FC00C0E6D2E00C94B7005F995CB018950A92F8
:10010C001A92FA926A937A938A939A93AA93BA93CD
:10011C00EA93FA93EFB7EA934394E091A402EF5F6A
:10012C00E093A402E2E0E41508F44424A091A402B4
:10013C00AE3128F0A0E2B2D1E0E0E093A402E5ED0C
:10014C00EDBDEFECECBDE991EFBFF991E991B991FF
:10015C00A9919991899179916991F9901990099046
:10016C001895A7D22FD03ED048D015D2A4E1F7D104
:10017C00A7D2E0E0EA93A7D250D0E1E0EA93F501F0
:10018C00A7D2ABD2E2E0EA93ABD2D5010E94FC0538
:10019C000E9458060E945B060E94D7049ED22ED164
:1001AC00E43511F40BD20CC0EA3519F4A4E1E0D11A
:1001BC0007C0E33411F439D203C0E63409F436D263
:1001CC00D5CFFFCFEFEFEABBE0E0EBBBEFEFE7BB48
:1001DC00E8BBEEEFE4BBEDE7E5BBE0E0E1BBEFEF46
:1001EC00E2BB0895E0E0EBB9E8E9EAB9E6E8E0BD86
:1001FC00E0E0E0BDE7E4E9B90895E0E0EFBDEDE053
:10020C00EEBDE5EDEDBDEFECECBDE0E0E7BDE6BD30
:10021C00EBBDEABDE9BDE8BD08950E9451062897E3
:10022C000E94680662D266D260F45FD2E0E0F0E031
:10023C0068EC72E40E942E050E946D048F0130E878
:10024C0021C053D257D240F050D2E0E0F0E46CE140
:10025C0076E40E94C10508F00DC047D2E0E0F0E062
:10026C0060E271E40E942E050E946D048F0130E063
:10027C0020E809C0EE85FF85688979890E946D04A4
:10028C008F0130E020E0D801E0E1F7E20E94210686
:10029C00AF01D80136D2EC87FD87D8013CD2EA8772
:1002AC00FB87D80142D2D8014CD255D259D260D258
:1002BC0052D2E559FD4FE081E62BE8BBEC85FD857C
:1002CC0063D26AD2E459FD4FE081E62BE8BBEA85A4
:1002DC00FB85E05AFD4FE081E32B62D267D2E05AF6
:1002EC00FD4FE081E22B5CD269D20E946F066396CF
:1002FC000895BA93AA9324970E946806AA85BB8591
:10030C00E0E1F7E20E9421068F01AA85BB85F9D1B5
:10031C009F01AA85BB85FFD1AF01AA85BB8505D2FC
:10032C00AA85BB850ED252D21BD2A00FB11F53D2BD
:10033C00E559FD4FE081E62BE8BBA0E6B2E0A20F49
:10034C00B31F49D2E459FD4FE081E62BE8BBA0E690
:10035C00B2E00ED23BD22AD217D2E8B3E17E6E2F96
:10036C0035D22CD20E946F062D960895AA931A931B
:10037C0010E01530E0F4E8B3E17EAE2FE12FF0E0B1
:10038C00E659FD4FE081EA2B30D2AFE6B2E0EE2722
:10039C00A10FBE1FEC91E02928D2A4E7B2E030D225
:1003AC00E029E8BBE981F0E0EFD11F5FE2CF1881D3
:1003BC0022960895AA931A9310E01530E0F4E8B34E
:1003CC00E17E6E2FEA81A5E0EA9FF001E659FD4F30
:1003DC00DF0116D2E62BE8BBE981A5E0EA9FF0012C
:1003EC00E758FD4FDF010CD2EBBBA1E0B0E00E945F
:1003FC0034041F5FE2CF1881239608951A931FEFE0
:10040C00AA98AB9AAC9AAD9AAE9A839B11E6849B50
:10041C0012E6859B13E6869B14E6879B15E6AA9A43
:10042C00AB98AC9AAD9AAE9A839B14E5849B11E081
:10043C00859B12E0869B13E0879B14E0AA9AAB9AEB
:10044C00AC98AD9AAE9A839B1AE5849B15E0859B7C
:10045C0016E0869B17E0879B18E0AA9AAB9AAC9A99
:10046C00AD98AE9A839B13E4849B15E4859B13E6AD
:10047C00869B19E0879B10E0AA9AAB9AAC9AAD9A2E
:10048C00AE98839B16E4849B10E5859B15E6869BB2
:10049C0013E5879B13E7E12F19910895AA935D9BB0
:1004AC00FECFE881ECB962C004D11A9310E0AC988D
:1004BC00AD9810E0183180F4A99A12D10E94F2057F
:1004CC00A4D1A998989B06C00BD1EF5FFF4F6F4F3B
:1004DC007F4F9BD11F5FEECFA99AF5D0E0E0F0E003
:1004EC0060E870E00E94E10590D1A998F9D01881DC
:1004FC0050C0AA93DED01A9310E010E0ED811E17C5
:10050C0048F4D2DFE0D00E94A2040E94DE047DD128
:10051C001F5FF4CFED81F0E0D6D07CD11881269608
:10052C000895AA932497AC81E4DFDF01CB01E0911D
:10053C009C02F0919D0260919E0270919F020E941C
:10054C00A4040E945B060E94D704BAD0AB81AA23F4
:10055C001AF4E0E00E944C060E9442061AC0AA93CC
:10056C00A881DFDFDF01CB01F30154D1219608957F
:10057C00AA932497AC81BDDF0E946B04A1D00E948A
:10058C004206E0939C02F0939D0260939E0270934E
:10059C009F02259608951A930A93A4E1E0DFA4E143
:1005AC00E7DF10E01A3038F4A12FE0DE042D04153B
:1005BC0009F01F5FF7CF0991199108950E946A06FF
:1005CC0010E000E01BDF3E2FE1E0E41511F40030F9
:1005DC0009F002C0109501E0E2E0E41509F400E036
:1005EC00103031F01BD1A1E020D1A2E0E3DE03C03A
:1005FC00E1E0EA931ED13336A9F400DF3E2F0ED191
:10060C0018D1353479F0353661F4E0E0E093A0028E
:10061C00E093A102E093A202E093A3028824992420
:10062C0001C0EBCF353471F640C008950E946A06C4
:10063C0004E020E030E0E2DE1E2FE0E0EA93A02FA1
:10064C0008D1F90145D049D01A30E0F404E0E0E0DB
:10065C00EA93A4E0FED0D9014CDEF901AAE0B0E0A7
:10066C000E940906DF01E12FF0E0EA0FFB1F9F015A
:10067C00283EE3E03E0734F0D901E8EEF3E00E94B7
:10068C0026069F01153489F0153671F4022E032AC3
:10069C0011F405E009C0A4E144DFDF01CB01F9014D
:1006AC00B9D00E946D043F01C6CF0E9471062496FA
:1006BC0008952497E0E0E883E983EA83EB830895C7
:1006CC000E9447060895A981BA818B819C81089567
:1006DC000E94F7050E94A4040895DF01CB019DCD73
:1006EC00E981FA816B817C810895AE85BF8588890B
:1006FC0099890895E0E0F0E06AE774E40E94C1058E
:10070C000895E0E1F7E20E942606DF01E8EEF3E04F
:10071C000E9421060895E8EEF3E00E942606DF0110
:10072C00E4E6F0E00E9421060895E4E6F0E00E9481
:10073C002606DF01EAE0F0E00E942106E887F9874F
:10074C000895EAE0F0E00E942606EE83FF83E8B30A
:10075C00E17E6E2F0895EA89A5E0EA9FF0010895E5
:10076C00E659FD4FE081E62BE8BBA0E6B2E0089528
:10077C00A40FB51FEC91EBBBA1E0B0E00E943404D8
:10078C00E8B3E17E6E2F0895E05AFD4FE081EBBB9C
:10079C00A1E0B0E00C943404E8B3E17E6E2FDBCF23
:1007AC00EBBBA1E0B0E00E943404F6CFE359FD4F5F
:1007BC00E081E62BE8BBE885F9850895E259FD4F09
:1007CC00E081E62BE8BBEE81FF81DECFEC85A5E076
:1007DC00EA9FF0010895EC91EBBBA1E0B0E00E9420
:1007EC003404E8B3E17E6E2FF1CFE8BBE981F0E091
:1007FC00E05AFD4FE081EBBBE8B3E17E0E2E08958D
:10080C00EE27A10FBE1FEC910895E983FA836B8349
:10081C007C8308955DDF0E947C050895E0E0EA93F7
:10082C00A0E0C8DDE1E0EA930895C4DDE2E0EA93DC
:10083C000895E091A002F091A1026091A202709142
:10084C00A3020E946D04DF0154DDE2E0EA93D401BF
:10085C0050CDB0DDE1E0EA93A3E0E7CF109639F09C
:10086C008DEC9AE00197F1F7A8951197C9F70895C7
:10087C00552342F4503811F4E0FF04C03196691F3F
:10088C00791F6BF050E8572711F45F93CFC05F3F8F
:10089C0031F0660F000C57956795752F08955F938F
:1008AC0000200AF0CFC0C8C050E8192E1522880FBE
:1008BC00991F9527550F879550E8072E0522660F2F
:1008CC00771F7527550F67950895689401C0E894B4
:1008DC005F93F2DF703818F07F3F08F4A7C056E141
:1008EC00571BAAF4519558300EF4593030F0EFEFF5
:1008FC00FFEF6FEF7FE777F91AC077275523B9F031
:10090C00EE0FFF1F661F771F5A95D1F710C0772780
:10091C00583028F0EF2FF62F672F5850F9CF55236A
:10092C0031F076956795F795E7955A95D1F70020B4
:10093C000AF44AD15F910895689401C0E894309705
:10094C0060407040B1F0002426F0772312F400943C
:10095C003BD1172E7EE1112032F07A95EE0FFF1F5E
:10096C00661F111CF9CFEF2FF62F612D5F938ADFD5
:10097C005F9108954F93AF01FD01DA01AB01BC010A
:10098C00CA01402D012C142E4F910895EA0FFB1F24
:10099C00681F0895E095F0956095EF5FFF4F6F4FDE
:1009AC0008955F9381DF903871F150E8152604C0EB
:1009BC005F937ADF903839F1703821F1572F591B3A
:1009CC002BF112F4D7DFFACF583118F0AA27BB2736
:1009DC008827583028F0AB2FB82F88275850F9CFDC
:1009EC00552329F08695B795A7955A95D9F7502D8B
:1009FC00512572F0CBDF38F46795F795E795739531
:100A0C0013F420C0B7DF3EDF5F910895D8F7FBCF1A
:100A1C00EA1BFB0B680B51F010F40094BBDF662350
:100A2C0092F3EE0FFF1F661F7A95CBF7EE27FF2789
:100A3C00662777275F910895EFEFFFEF6FE77FEF62
:100A4C005F910895EFEFFFEF6FE77FE75F910895F8
:100A5C005F932ADF703851F3903841F301240894E6
:100A6C00791F23F41CF300203AF3ECCF0F921F9361
:100A7C002F933F934F93112722279927689FA0010B
:100A8C008F9F302D410D591F6B9F300D411D591FEC
:100A9C008E9F27D0BF9F25D06A9F23D0BE9F1DD08D
:100AAC00AF9F1BD0AE9F110D291F391F491F591F16
:100ABC00E32FF42F652F522F4F913F912F911F91C0
:100ACC000F9066232AF0550FEE1FFF1F661F02C002
:100ADC0073954BF2CDDE5F910895100D211D391FDA
:100AEC0002C0200D311D491F591F08955F93DCDE94
:100AFC00703821F411200AF49FCFA4CF903809F458
:100B0C0095CF01240894970B1BF4D4F30020F3CF5A
:100B1C00792F1F932F933F934F9311241127222743
:100B2C0033274427552790E2AE17BF0786074107A6
:100B3C0030F0AE1BBF0B860B410B089401C08894A0
:100B4C00551F221F331F111CAA1FBB1F881F441FB8
:100B5C009A9551F7F901612D4F913F912F911F916A
:100B6C00662332F0550FEE1FFF1F661F7A9543F276
:100B7C007FDE5F91089599239AF0772342F09717BF
:100B8C0048F029F4AE17BF07860720F031F098948F
:100B9C0088940895989408940895189488940895C6
:100BAC007723C2F7971798F3A9F7EA17FB0768079B
:100BBC0088F399F3ECCFEA27FB2768277927089568
:100BCC00F195E195F0400895F09560957095E1955B
:100BDC00FF4F6F4F7F4F0895EE0FFF1F661F771F5C
:100BEC0008956F2F660F660B762F08958B2F880F45
:100BFC00880B982F0895FA9FF02DEB9FF00DEA9F2C
:100C0C00E02DF10D08952AD0F6DF0EF4D9DF08950A
:100C1C000024112490E1AA0FBB1F001C111C0E1AFA
:100C2C001F0A18F40E0E1F1E01C0A1609A9599F7A9
:100C3C00FD01D001089512D0EBDF0EF4C1DF089551
:100C4C00E894B7FF04C0A095B09511966894F7FD91
:100C5C00B7DFDEDFFD010EF4B3DF0895E894F7FF94
:100C6C0002C0AEDF6894B7FF06C0A095B095119690
:100C7C0000F8039400FA0895E881F9816A817B8178
:100C8C000895E883F9836A837B830895E883E98375
:100C9C00EA83EB8308959A938A93BA93AA9308955F
:100CAC00689401C0E89401D04ADE182E862F612D7D
:100CBC00192E972F712D1B2EBF2FF12D1A2EAE2F03
:100CCC00E12D08955A934A933A932A931A930A93CF
:100CDC0008955D814C813B812A8119810881089599
:00000001FF
